:100000000C945D000C9485000C9485000C94850084
:100010000C9485000C9485000C9485000C9485004C
:100020000C9485000C9485000C9485000C9485003C
:100030000C9485000C9485000C9485000C9485002C
:100040000C9417010C9485000C94C4030C94F603D3
:100050000C9485000C9485000C9485000C9485000C
:100060000C9485000C94850000000008000201003B
:100070000003040700000000000000000102040863
:100080001020408001020408102001020408102002
:10009000040404040404040402020202020203032E
:1000A0000303030300000000250028002B000000CC
:1000B0000000240027002A00260411241FBECFEFD1
:1000C000D8E0DEBFCDBF11E0A0E0B1E0E0EFF9E0A5
:1000D00002C005900D92A832B107D9F721E0A8E23D
:1000E000B1E001C01D92A13DB207E1F710E0CAEBFB
:1000F000D0E004C02297FE010E94F204C83BD10761
:10010000C9F70E946A040C94F6040C94000061E0A4
:1001100084E00E94100261E083E00E94100261E02E
:1001200085E00E94100261E08DE00E94100260E014
:100130008DE00E94490226E040E855E260E070E070
:1001400084E391E00C94620360E085E00E94490240
:1001500060E084E00E94490260E083E00C94490280
:1001600084E391E00E947F020397F1F484E391E03D
:100170000E94980280932A0164E670E080E090E09B
:100180000E94840184E391E00E94980280932901F7
:1001900064E670E080E090E00E94840184E391E0F6
:1001A0000E9498028093280180912A0181113CC00D
:1001B000809129018A3A61F50E94A400809128016A
:1001C000833081F028F4813051F0823079F01EC004
:1001D0008630A9F0873079F08430C1F414C061E032
:1001E00085E006C061E085E00E94490261E084E0AC
:1001F0000E9449020DC061E085E00E94490261E071
:1002000084E00E94490261E083E0F2CF0E94A400F2
:1002100010922A01109229011092280160E071E0E9
:1002200084E391E00C94BB0408950C94B0001F92F9
:100230000F920FB60F9211242F933F938F939F939A
:10024000AF93BF9380912C0190912D01A0912E012D
:10025000B0912F0130912B0123E0230F2D3720F493
:100260000196A11DB11D05C026E8230F0296A11D10
:10027000B11D20932B0180932C0190932D01A0930D
:100280002E01B0932F018091300190913101A09106
:100290003201B09133010196A11DB11D809330014F
:1002A00090933101A0933201B0933301BF91AF918C
:1002B0009F918F913F912F910F900FBE0F901F90A4
:1002C00018953FB7F8948091300190913101A09139
:1002D0003201B091330126B5A89B05C02F3F19F01C
:1002E0000196A11DB11D3FBF6627782F892F9A2F38
:1002F000620F711D811D911D42E0660F771F881FDF
:10030000991F4A95D1F70895CF92DF92EF92FF920D
:10031000CF93DF936B017C010E946101EB01C1145B
:10032000D104E104F10489F00E94CD040E9461012E
:100330006C1B7D0B683E734090F381E0C81AD108B6
:10034000E108F108C851DC4FEACFDF91CF91FF906F
:10035000EF90DF90CF900895789484B5826084BD4B
:1003600084B5816084BD85B5826085BD85B58160B9
:1003700085BDEEE6F0E0808181608083E1E8F0E019
:100380001082808182608083808181608083E0E848
:10039000F0E0808181608083E1EBF0E08081846027
:1003A0008083E0EBF0E0808181608083EAE7F0E029
:1003B000808184608083808182608083808181608D
:1003C00080838081806880831092C100089583308B
:1003D00081F028F4813099F08230A1F008958730BF
:1003E000A9F08830B9F08430D1F4809180008F7DFD
:1003F00003C0809180008F7780938000089584B53A
:100400008F7702C084B58F7D84BD08958091B00040
:100410008F7703C08091B0008F7D8093B0000895E6
:10042000CF93DF9390E0FC01E458FF4F2491FC014F
:10043000E057FF4F8491882349F190E0880F991F7E
:10044000FC01E255FF4FA591B4918C559F4FFC01E3
:10045000C591D4919FB7611108C0F8948C912095F3
:1004600082238C93888182230AC0623051F4F894ED
:100470008C91322F309583238C938881822B8883B3
:1004800004C0F8948C91822B8C939FBFDF91CF9105
:1004900008950F931F93CF93DF931F92CDB7DEB7CD
:1004A000282F30E0F901E859FF4F8491F901E45811
:1004B000FF4F1491F901E057FF4F04910023C9F059
:1004C000882321F069830E94E7016981E02FF0E031
:1004D000EE0FFF1FEC55FF4FA591B4919FB7F89415
:1004E0008C91611103C01095812301C0812B8C93E5
:1004F0009FBF0F90DF91CF911F910F910895FC0145
:10050000818D228D90E0805C9F4F821B91098F73BB
:1005100099270895FC01918D828D981731F0828D75
:10052000E80FF11D858D90E008958FEF9FEF0895FE
:10053000FC01918D828D981761F0828DDF01A80FEB
:10054000B11D5D968C91928D9F5F9F73928F90E00D
:1005500008958FEF9FEF08958CE194E0892B49F087
:1005600080E090E0892B29F00E941C0481110C94FA
:1005700000000895FC01848DDF01A80FB11DA35A6E
:10058000BF4F2C91848D90E001968F739927848FB3
:10059000A689B7892C93A089B1898C9180648C93AA
:1005A000938D848D981306C00288F389E02D808195
:1005B0008F7D80830895CF93DF93EC01888D88230E
:1005C000C9F0EA89FB89808185FD05C0A889B989C0
:1005D0008C9186FD0FC00FB607FCF5CF808185FF9B
:1005E000F2CFA889B9898C9185FFEDCFCE010E9409
:1005F000BA02E7CFDF91CF910895CF92DF92FF92B9
:100600000F931F93CF93DF931F92CDB7DEB76C018B
:1006100081E0D60158968C9358975B969C915B9796
:100620005C968C915C97981307C05096ED91FC9165
:100630005197808185FD2EC0F601038D10E00F5F7C
:100640001F4F0F731127F02EF601848DF81211C081
:100650000FB607FCF9CFD6015096ED91FC9151975A
:10066000808185FFF1CFC60169830E94BA0269814A
:10067000EBCF838DE80FF11DE35AFF4F6083D60166
:100680005B960C935B975296ED91FC91539780810A
:1006900080620CC0D6015696ED91FC91579760830D
:1006A0005096ED91FC91519780818064808381E028
:1006B00090E00F90DF91CF911F910F91FF90DF900D
:1006C000CF900895BF92CF92DF92EF92FF92CF9397
:1006D000DF93EC016A017B01B22EE889F98982E09F
:1006E0008083411581EE580761057105A1F060E036
:1006F00079E08DE390E0A70196010E94CE0421509D
:100700003109410951095695479537952795211586
:1007100080E1380798F0E889F989108260E874E888
:100720008EE190E0A70196010E94CE04215031098C
:10073000410951095695479537952795EC85FD85D3
:100740003083EE85FF852083188EEC89FD89B08289
:10075000EA89FB89808180618083EA89FB898081C5
:1007600088608083EA89FB89808180688083EA8948
:10077000FB8980818F7D8083DF91CF91FF90EF9007
:10078000DF90CF90BF9008951F920F920FB60F92F7
:1007900011242F938F939F93EF93FF93E091440144
:1007A000F09145018081E0914A01F0914B0182FD79
:1007B00012C0908180914D018F5F8F7320914E0107
:1007C000821751F0E0914D01F0E0EC5CFE4F958F07
:1007D00080934D0101C08081FF91EF919F918F9196
:1007E0002F910F900FBE0F901F9018951F920F9290
:1007F0000FB60F9211242F933F934F935F936F93F4
:100800007F938F939F93AF93BF93EF93FF9384E373
:1008100091E00E94BA02FF91EF91BF91AF919F9139
:100820008F917F916F915F914F913F912F910F9099
:100830000FBE0F901F90189584E391E00E947F02F5
:1008400021E0892B09F420E0822F089510923701CE
:100850001092360188EE93E0A0E0B0E0809338017A
:1008600090933901A0933A01B0933B018AE091E063
:10087000909335018093340185EC90E09093410191
:100880008093400184EC90E0909343018093420177
:1008900080EC90E0909345018093440181EC90E0DE
:1008A000909347018093460182EC90E09093490138
:1008B0008093480186EC90E090934B0180934A012D
:1008C00010924D0110924E0110924F011092500162
:1008D000089508950E94AC010E9469040E94870057
:1008E000CCEAD2E00E9415012097E1F30E94AC020D
:1008F000F9CFCF92DF92EF92FF920F931F93CF9396
:10090000DF937C016A01EB0100E010E00C151D058E
:1009100071F06991D701ED91FC910190F081E02D8A
:10092000C7010995892B19F00F5F1F4FEFCFC80141
:10093000DF91CF911F910F91FF90EF90DF90CF90BB
:1009400008956115710581F0DB010D900020E9F734
:10095000AD0141505109461B570BDC01ED91FC9153
:100960000280F381E02D099480E090E0089566E133
:1009700071E00C94A1040F931F93CF93DF93EC01CC
:100980000E94A1048C01CE010E94B704800F911F28
:10099000DF91CF911F910F9108950895A1E21A2E32
:1009A000AA1BBB1BFD010DC0AA1FBB1FEE1FFF1F13
:1009B000A217B307E407F50720F0A21BB30BE40B63
:1009C000F50B661F771F881F991F1A9469F76095AA
:1009D0007095809590959B01AC01BD01CF01089564
:1009E000EE0FFF1F0590F491E02D0994F894FFCFCE
:1009F00052454144590000000000FD0279047F0285
:100A000098028A02DB020D0A006E616E00696E6652
:080A1000006F7666002E000065
:00000001FF
