:100000000C9464000C948C000C948C000C948C0068
:100010000C948C000C948C000C948C000C948C0030
:100020000C948C000C948C000C948C000C948C0020
:100030000C948C000C948C000C948C000C948C0010
:100040000C9425010C948C000C94D2030C940404A1
:100050000C948C000C948C000C948C000C948C00F0
:100060000C948C000C948C00010107010301150114
:100070000B0111010D010000000800020100000346
:100080000407000000000000000001020408102026
:10009000408001020408102001020408102004041A
:1000A0000404040404040202020202020303030320
:1000B000030300000000250028002B0000000000C2
:1000C000240027002A00340411241FBECFEFD8E0FB
:1000D000DEBFCDBF11E0A0E0B1E0ECE6FBE002C086
:1000E00005900D92A232B107D9F721E0A2E2B1E06A
:1000F00001C01D92AB3CB207E1F710E0C8ECD0E0C4
:1001000004C02297FE010E94B005C63CD107C9F782
:100110000E9478040C94B4050C94000061E084E023
:100120000E941E0261E083E00E941E0261E085E001
:100130000E941E0261E085E00E94570261E084E0B7
:100140000E94570261E083E00E94570226E040E0EF
:1001500052EC61E070E08EE291E00C9470034AE0B2
:1001600050E060E870E08EE291E00C94730560E08E
:1001700085E00E94570260E084E00E94570260E040
:1001800083E00C9457028EE291E00E948D021816D3
:100190001906F4F48EE291E00E94A60280932401F5
:1001A00064E670E080E090E00E9492018EE291E0CF
:1001B0000E94A6028093230164E670E080E090E054
:1001C0000E9492018EE291E00E94A6028093220199
:1001D000809124018F3F81F580912301803851F176
:1001E0008A3A51F50E94B7008091220190E0FC010B
:1001F0003197E730F105D8F4EC5CFF4F61E00C94E7
:10020000AE0585E005C085E00E94570261E084E00C
:100210000E94570211C085E005C085E00E94570288
:1002200061E084E00E94570261E083E0F1CF0E9428
:10023000B70002C00E94AF00109224011092230167
:100240001092220108950C94C3001F920F920FB6D2
:100250000F9211242F933F938F939F93AF93BF934C
:100260008091260190912701A0912801B091290148
:100270003091250123E0230F2D3720F40196A11D95
:10028000B11D05C026E8230F0296A11DB11D2093C4
:1002900025018093260190932701A0932801B09314
:1002A000290180912A0190912B01A0912C01B091FC
:1002B0002D010196A11DB11D80932A0190932B0160
:1002C000A0932C01B0932D01BF91AF919F918F917D
:1002D0003F912F910F900FBE0F901F9018953FB731
:1002E000F89480912A0190912B01A0912C01B0915A
:1002F0002D0126B5A89B05C02F3F19F00196A11D21
:10030000B11D3FBF6627782F892F9A2F620F711D6D
:10031000811D911D42E0660F771F881F991F4A9526
:10032000D1F70895CF92DF92EF92FF92CF93DF93B0
:100330006B017C010E946F01EB01C114D104E10447
:10034000F10489F00E948B050E946F016C1B7D0BEC
:10035000683E734090F381E0C81AD108E108F108C3
:10036000C851DC4FEACFDF91CF91FF90EF90DF9043
:10037000CF900895789484B5826084BD84B58160FF
:1003800084BD85B5826085BD85B5816085BDEEE69D
:10039000F0E0808181608083E1E8F0E0108280817C
:1003A00082608083808181608083E0E8F0E08081EA
:1003B00081608083E1EBF0E0808184608083E0EB0A
:1003C000F0E0808181608083EAE7F0E080818460F2
:1003D000808380818260808380818160808380814E
:1003E000806880831092C1000895833081F028F4E2
:1003F000813099F08230A1F008958730A9F08830DB
:10040000B9F08430D1F4809180008F7D03C0809159
:1004100080008F7780938000089584B58F7702C025
:1004200084B58F7D84BD08958091B0008F7703C01F
:100430008091B0008F7D8093B0000895CF93DF93BB
:1004400090E0FC01E657FF4F2491FC01E256FF4F7C
:100450008491882349F190E0880F991FFC01E454AE
:10046000FF4FA591B4918E549F4FFC01C591D4913B
:100470009FB7611108C0F8948C91209582238C93CA
:10048000888182230AC0623051F4F8948C91322F13
:10049000309583238C938881822B888304C0F894C1
:1004A0008C91822B8C939FBFDF91CF9108950F93F6
:1004B0001F93CF93DF931F92CDB7DEB7282F30E085
:1004C000F901EA58FF4F8491F901E657FF4F149163
:1004D000F901E256FF4F04910023C9F0882321F06F
:1004E00069830E94F5016981E02FF0E0EE0FFF1FA4
:1004F000EE54FF4FA591B4919FB7F8948C91611180
:1005000003C01095812301C0812B8C939FBF0F9056
:10051000DF91CF911F910F910895FC01818D228D64
:1005200090E0805C9F4F821B91098F7399270895FB
:10053000FC01918D828D981731F0828DE80FF11DAD
:10054000858D90E008958FEF9FEF0895FC01918DC8
:10055000828D981761F0828DDF01A80FB11D5D9625
:100560008C91928D9F5F9F73928F90E008958FEF93
:100570009FEF08958AE294E0892B49F080E090E0B3
:10058000892B29F00E942A0481110C9400000895FF
:10059000FC01848DDF01A80FB11DA35ABF4F2C9120
:1005A000848D90E001968F739927848FA689B789EF
:1005B0002C93A089B1898C9180648C93938D848DC8
:1005C000981306C00288F389E02D80818F7D808397
:1005D0000895CF93DF93EC01888D8823C9F0EA89D1
:1005E000FB89808185FD05C0A889B9898C9186FD2C
:1005F0000FC00FB607FCF5CF808185FFF2CFA88929
:10060000B9898C9185FFEDCFCE010E94C802E7CF5A
:10061000DF91CF910895CF92DF92FF920F931F93B6
:10062000CF93DF931F92CDB7DEB76C0181E0D60187
:1006300058968C9358975B969C915B975C968C919F
:100640005C97981307C05096ED91FC91519780816B
:1006500085FD2EC0F601038D10E00F5F1F4F0F7355
:100660001127F02EF601848DF81211C00FB607FC89
:10067000F9CFD6015096ED91FC915197808185FF7D
:10068000F1CFC60169830E94C8026981EBCF838DD7
:10069000E80FF11DE35AFF4F6083D6015B960C9380
:1006A0005B975296ED91FC915397808180620CC0CC
:1006B000D6015696ED91FC91579760835096ED9137
:1006C000FC91519780818064808381E090E00F905D
:1006D000DF91CF911F910F91FF90DF90CF90089500
:1006E000BF92CF92DF92EF92FF92CF93DF93EC0114
:1006F0006A017B01B22EE889F98982E08083411585
:1007000081EE580761057105A1F060E079E08DE3A5
:1007100090E0A70196010E948C0521503109410902
:1007200051095695479537952795211580E138074A
:1007300098F0E889F989108260E874E88EE190E029
:10074000A70196010E948C052150310941095109E8
:100750005695479537952795EC85FD853083EE8531
:10076000FF852083188EEC89FD89B082EA89FB8998
:10077000808180618083EA89FB89808188608083B1
:10078000EA89FB89808180688083EA89FB8980818E
:100790008F7D8083DF91CF91FF90EF90DF90CF909E
:1007A000BF9008951F920F920FB60F9211242F93AE
:1007B0008F939F93EF93FF93E0913E01F0913F0160
:1007C0008081E0914401F091450182FD12C0908149
:1007D000809147018F5F8F7320914801821751F0FC
:1007E000E0914701F0E0E25DFE4F958F8093470175
:1007F00001C08081FF91EF919F918F912F910F9078
:100800000FBE0F901F9018951F920F920FB60F9268
:1008100011242F933F934F935F936F937F938F9305
:100820009F93AF93BF93EF93FF938EE291E00E946B
:10083000C802FF91EF91BF91AF919F918F917F91EE
:100840006F915F914F913F912F910F900FBE0F903D
:100850001F9018958EE291E00E948D0221E0892B75
:1008600009F420E0822F0895109231011092300196
:1008700088EE93E0A0E0B0E08093320190933301E2
:10088000A0933401B093350184E091E090932F015F
:1008900080932E0185EC90E090933B0180933A0188
:1008A00084EC90E090933D0180933C0180EC90E0DB
:1008B00090933F0180933E0181EC90E09093410141
:1008C0008093400182EC90E0909343018093420139
:1008D00086EC90E09093450180934401109247018B
:1008E000109248011092490110924A01089508950A
:1008F0000E94BA010E9477040E948E00CAEBD2E0E7
:100900000E9423012097E1F30E94BA02F9CFCF920F
:10091000DF92EF92FF920F931F93CF93DF937C01AF
:100920006A01EB0100E010E00C151D0571F0699102
:10093000D701ED91FC910190F081E02DC70109955F
:10094000892B19F00F5F1F4FEFCFC801DF91CF91B7
:100950001F910F91FF90EF90DF90CF900895611558
:10096000710581F0DB010D900020E9F7AD014150E8
:100970005109461B570BDC01ED91FC910280F3817C
:10098000E02D099480E090E00895DC01ED91FC9168
:100990000190F081E02D099460E171E00C94AF04C6
:1009A0008F929F92AF92BF92CF92DF92EF92FF927F
:1009B0000F931F93CF93DF93CDB7DEB7A1970FB6F9
:1009C000F894DEBF0FBECDBF7C01C42EE52FCB0156
:1009D000D22E19A221E02D1510F02AE0D22E8E0180
:1009E0000F5D1F4F8D2C912CA12CB12C6C2D7E2FC7
:1009F000A50194010E948C058C2DD29E8019112492
:100A0000015011098A3014F4805D01C0895CF8013D
:100A10008083211531054105510521F0C22EE32FB8
:100A2000CA01E4CFB801C7010E94AF04A1960FB676
:100A3000F894DEBF0FBECDBFDF91CF911F910F9114
:100A4000FF90EF90DF90CF90BF90AF909F908F90EE
:100A50000895CF92DF92EF92FF920F931F93CF935F
:100A6000DF93EC016A017B012115310579F4E881FE
:100A7000F9810190F081E02D642FDF91CF911F91DA
:100A80000F91FF90EF90DF90CF9009942A303105BD
:100A9000E9F477FF1AC06DE20E94C5048C01442777
:100AA0005527BA014C195D096E097F092AE0CE016C
:100AB0000E94D004800F911FDF91CF911F910F9161
:100AC000FF90EF90DF90CF9008952AE0B701A60144
:100AD000CE01DF91CF911F910F91FF90EF90DF90AA
:100AE000CF900C94D0040F931F93CF93DF93EC011E
:100AF0009A01AB01662757FD6095762F0E94290564
:100B00008C01CE010E94CC04800F911FDF91CF9108
:100B10001F910F9108950895A1E21A2EAA1BBB1BE5
:100B2000FD010DC0AA1FBB1FEE1FFF1FA217B307B9
:100B3000E407F50720F0A21BB30BE40BF50B661FCF
:100B4000771F881F991F1A9469F760957095809593
:100B500090959B01AC01BD01CF010895EE0FFF1FE1
:0C0B60000590F491E02D0994F894FFCF6B
:100B6C00000000000B0387048D02A6029802E90224
:100B7C000D0A006E616E00696E66006F7666002E5F
:020B8C00000067
:00000001FF
